:100000006F105032130000001300000013000000B6
:100010001300000013000000130000001300000094
:100020001300000013000000130000001300000084
:08003000130000007300100032
:100038000000000000000000661A0000681A0000B6
:10004800000000006A1A0000000000000000000024
:100058006C1A00006E1A000000000000000000008A
:10006800701A000000000000721A00000000000072
:10007800741A0000761A0000781A00007A1A000034
:100088007C1A00007E1A0000801A0000821A000004
:10009800841A0000861A0000881A00008A1A0000D4
:1000A8008C1A00008E1A0000901A0000921A0000A4
:1000B800941A0000961A0000981A00009A1A000074
:1000C8009C1A00009E1A0000A01A0000A21A000044
:1000D800A41A0000A61A0000A81A0000AA1A000014
:1000E800AC1A0000AE1A0000B01A0000B21A0000E4
:1000F800B41A0000B61A0000B81A0000BA1A0000B4
:10010800BC1A0000BE1A0000C01A0000C21A000083
:10011800C41A0000C61A0000C81A0000CA1A000053
:10012800CC1A0000CE1A0000D01A0000D21A000023
:10013800D41A0000D61A0000D81A0000DA1A0000F3
:10014800DC1A0000DE1A0000E01A0000E21A0000C3
:10015800E41A0000E61A0000E81A0000EA1A000093
:10016800EC1A0000EE1A0000F01A0000F21A000063
:10017800F41A0000F61A0000F81A0000FA1A000033
:10018800FC1A0000FE1A0000001B0000021B000001
:10019800041B0000061B0000081B00000A1B0000CF
:1001A8000C1B00000E1B0000101B0000121B00009F
:1001B800141B0000161B0000181B00001A1B00006F
:1001C8001C1B00001E1B0000201B0000221B00003F
:1001D8000000000000000000000000000000000017
:1001E8000000000000000000000000000000000007
:0801F8000000000000000000FF
:10020000397122CC26CA06CE32D436D63AD83EDA56
:1002100042DC46DE2A84AE8401C51C4D91E35D2A92
:100220000C4434102686228536C6EF001013F240A7
:100230006244D244216182805D71BEC222D42A848C
:1002400003A5C18006D62EDA32DC36DEBAC0C2C4BF
:10025000C6C611C51C4D81E72AC6AD2A32450C45DC
:100260005418228636CEEF00500FB25022546161EE
:100270008280397122DC2A842E8526DA06DEAE845D
:1002800061208967938747743ED485473ED61C100A
:100290002AD23ECA0505894726D02ACE3ECC19E08F
:1002A0001C4402901C4C85EB22852D221C4C0C44D6
:1002B0008DC789679387C76C6396F5024C405008D9
:1002C00022852524A94711C1FD57F2506254D2540A
:1002D0003E85216182800C44E9BF22852EC6DD283F
:1002E000B245C1BF89679387C76A6394F5000C4420
:1002F000F9B789679387C768E393F5FC4C44C1B7A6
:10030000AA8503A5C180B5B7AA8703C707008507DB
:100310006DFF3385A7407D158280014582804111A4
:1003200022C406C62A842316B5002317C50023203D
:100330000500232205002324050023220506232887
:100340000500232A0500232C0500214681451305BD
:10035000C505B52B8567938787165CD0856793871E
:10036000C7191CD485679387A71E5CD485679387BC
:100370000722B24000D01CD822444101828085650A
:100380009385855769A101458280411126C2930753
:1003900080069384F5FFB384F4024AC02E8922C4F8
:1003A00006C693854407E92B2A8419C92320050032
:1003B00023222501310508C4138684068145012BBB
:1003C000B24022852244924402494101828003A521
:1003D000018175B71C4DB9EF411122C406C69307C0
:1003E000E0371CD583A701812324050423260504B7
:1003F000232805042A846314F50085471CCD228533
:100400001D2848C02285052808C422852D2048C4FF
:10041000484001469145213708440546A545013726
:1004200048440946C945E53D8547B2401CCC2244B5
:10043000410182808280411126C283A401814AC089
:1004400006C69C4C22C42A8999E326856137938489
:1004500084048044DC40FD1763D607009C40B1CF84
:100460008440C5BF0317C40031E7C1778507232245
:1004700004062320040023220400232404005CC477
:1004800023280400232A0400232C0400214681454C
:100490001305C4052D29232A0402232C0402232436
:1004A000040423260404B2402285224492440249D3
:1004B000410182801304840679BF91454A85F13554
:1004C00088C02A8451FDB1472320F900E9BF82800A
:1004D00082808280828003A5C1809305A031F9A427
:1004E00003A5C18093056038D1A41C4699E301455A
:1004F000828083D7C500397122DC4ED656D206DE03
:1005000026DA4AD852D45AD05ECE62CC66CA6AC8BD
:100510006EC6A18BAA892E84B28AD1C39C49C1C35D
:100520008317C40003AA0A0013F7270069EB858B21
:1005300063820714814B0145014B0149630D09207A
:10054000630305225E8C637379014A8C08401C4862
:100550000444544863F5A722B69463D28423DA8511
:10056000268699261C40A2854E85A6971CC0EF10B2
:10057000A000631A050EB38B9B40054563970B00E3
:10058000A2854E85EF00507F79ED83A78A00269BD8
:1005900033099940858F23A4FA00CDF389A0A28561
:1005A0004E85EF00B0572DDD7D551DA803290A00AB
:1005B00083244A00210A1C540C50EDD8A68663738C
:1005C0009B00DA864A864E858297635EA00883A7E1
:1005D0008A002A99898C898F23A4FA00E9FF0145B2
:1005E000F2506254D2544259B259225A925A025B82
:1005F000F24B624CD24C424DB24D21618280370B9E
:10060000008001498144134B0BC075B7032B0A00CE
:1006100003294A00210A8317C4000840032D8400DF
:10062000E30609FE13F7072061CF6363A90913F7F7
:1006300007483DCF44480C48B3049C02B30DB54075
:1006400013871D004A97B3C4940363F3E400BA848C
:1006500093F70740D9C7A6854E851D262A8D05E547
:10066000B14723A0F9008357C40093E7070423167A
:10067000F4001DBFB70B0080014B014993CBFBFF7A
:100680000D4C894C49BF0C486E8621248357C40009
:1006900093F7F7B793E707082316F4002328A4017C
:1006A00044C86E9DB384B4412320A40104C44A8D80
:1006B000CA846373A9014A8D08406A86DA85ED22EF
:1006C0001C44B387A7411CC41C40EA971CC083A7E5
:1006D0008A00269B33099940858F23A4FA0085FF61
:1006E000FDBD26864E85952E2A8D4DF90C484E85EA
:1006F000FD228357C40093F7F7F72316F4008DB754
:100700001C4863E5A70054486376D902EA84637302
:10071000A901CA842686DA85412A1C441840858F9F
:1007200026971CC418C0C5F7A2854E85EF00D0647B
:1007300059DD15BFCA8763F32B01DE87B3C7D70224
:1007400018540C505A864E85B386D7020297AA8455
:10075000E34FA0F609BF03294A00D287210AE30C20
:1007600009FE03AB07004A86A9455A853122930B3F
:100770001900E30905DC0505B30B6541E1B3634BE3
:10078000DC001C540C505A864E858297AA84E344A0
:10079000A0DED1BD6286DA85012A1C44E284B387DB
:1007A00087411CC41C40E2971CC0F1B3011122CC4C
:1007B0004AC84EC656C25AC006CE26CA52C4AE89D0
:1007C000130485040149854A7D5B0444032A4400DF
:1007D0007D1A635F0A0000406DF8F2406244D24423
:1007E000B249224A924A024B4A85424905618280B7
:1007F00083D7C40063FAFA008397E4006386670135
:10080000268582993369A90093848406D1B77971CA
:1008100022D44AD04ECE52CC5AC85EC606D626D274
:1008200056CA2A892E8A130485048149054BFD5B2B
:100830000444832A4400FD1A63D00A0200406DF884
:10084000B250225492540259624AD24A424BB24B9D
:100850004E85F2494561828083D7C400637BFB00EB
:100860008397E40063877701A6854A85029AB3E9F6
:10087000A90093848406C1B793F5F50F2A966314F3
:10088000C5000145828083470500E38DB7FE05055D
:10089000FDB72A8309CA83830500230073007D16F0
:1008A000050385056DFA828015C22A838546636734
:1008B000B500FD561307F6FF3A93BA9583830500FA
:1008C000230073007D163693B6956DFA82802A83D5
:1008D00011C62300B3007D16050365FE8280C5C1E5
:1008E00083A7C5FF011122CC06CE1384C5FF63D3B5
:1008F00007003E942AC6EF00306283A7018232458A
:1009000091EB2322040023A081826244F24005611E
:100910006F00B060637DF4001040B306C4006396BE
:10092000D7009443DC43B29614C05CC0E9BF3E8755
:10093000DC4399C3E37DF4FE14433306D700631F01
:1009400086001040B29614C33306D700E39FC7FA5F
:100950009043DC43B29614C35CC345BF6375C400C7
:10096000B1471CC15DB71040B306C4006396D70001
:100970009443DC43B29614C05CC040C379B7828014
:10098000011126CA93843500F1984AC806CE22CCBC
:100990004EC6A104B1472A8963F3F404B14463E26B
:1009A000B4044A85EF00505703A701823A8429E432
:1009B00083A7C18199E781454A85EF00207823AE5E
:1009C000A180A6854A85EF006077FD59631B350736
:1009D000B1472320F9004A85EF00305431A0E3D01D
:1009E00004FCB1472320F9000145F2406244D2449F
:1009F0004249B249056182801C40858F63C007046B
:100A00002D466376F6001CC03E9404C031A05C40C5
:100A10006314870223A0F1824A85EF00105013056A
:100A2000B4009307440061993307F540E30FF5FAEA
:100A30003A94898F1CC055BF5CC3F9BF22874040E0
:100A4000BDB7130435007198E30185FCB305A440DC
:100A50004A85ED25E31B35FBA5BF011122CC06CE4F
:100A600026CA4AC84EC652C4328491E96244F24052
:100A7000D2444249B249224AB285056111B701EE1A
:100A8000B93D8144F24062444249B249224A268536
:100A9000D244056182802A8AAE84EF0030482A89D8
:100AA0006366850093571500E3EE87FCA2855285A7
:100AB000C13DAA8979D52286637389004A86A685B5
:100AC0004E85C13BA6855285193DCE8465BF1C4627
:100AD000FD171CC663D90700184E63C5E700A94778
:100AE0006393F50089A71C422E851387170018C24F
:100AF0002380B7008280011122CC26CA4AC84EC684
:100B000052C406CE2A89AE893284B304D6007D5AF7
:100B100063149400014509A8834504004E864A8564
:100B20007D370504E31645FFF2406244D244424952
:100B3000B249224A056182801C46411122C406C680
:100B4000328491CB5D3223240400B240232204007E
:100B50002244410182800145CDBF1971A2DCA6DA91
:100B6000CAD8CED686DED2D4D6D2DAD0DECEE2CC89
:100B7000E6CAEAC8AA89AE843289368409C51C4D02
:100B800099E3EFF03F8589679387C76C639CF40C0A
:100B900083A4490083D7C400A18B6385070E9C48BA
:100BA000F5C393070002A300F1029307000302CEEE
:100BB0002301F10222C2130B5002096A854B896A94
:100BC000096C856C4A848347040099C36390670F5E
:100BD000330D2441630D2401EA864A86A6854E859D
:100BE000193FFD57630AF51AF247EA973ECE83474D
:100BF00004006383071AFD571309140002C402CAD4
:100C00003EC602C8A3050104834509001546130525
:100C10008A749D31A2471304190059E913F707019B
:100C200009C713070002A305E10413F7870009C7EA
:100C30001307B002A305E104834609001307A002CD
:100C40006381E608D2474A84814625462945034701
:100C5000040093051400130707FD637AE60AB5CA7A
:100C60003ECA85A889679387C76A6395F40083A401
:100C700089000DB789679387C768E39DF4F083A463
:100C8000C90009BFA6854E85512DE30C05F07D55A1
:100C9000F6506654D6544659B659265A965A065BAB
:100CA000F64B664CD64C464D09618280050421BF47
:100CB00013078A74198D3395AB00C98F3EC42289FE
:100CC000A1B7124793064700184336C2634A07028A
:100CD0003ACA034704009307E002631FF70403477F
:100CE00014009307A002631AF702924709041387BE
:100CF00047009C433AC263D30700FD573EC62DA868
:100D00003307E04093E727003ACA3EC4D9B7B38718
:100D1000A7022E848546BA971DBF050402C68146E8
:100D2000814725462945034704009305140013070E
:100D300007FD637DE604F9F2834504000D46138543
:100D40000A751D3E01CD93870A751D8DA2471307B5
:100D500000043317A700D98F05043EC4834504005F
:100D6000194613054C752300B10239365800938695
:100D70006CAF26862C004E85B122FD571309140056
:100D8000630CF500F247AA973ECE2DBDB387A702AC
:100D90002E848546BA9741BF83D7C40093F70704D2
:100DA000E39707EE7245EDB5B2862E86AA8503A5B8
:100DB000C18065B3797156CA9C49BA8A984522D4D4
:100DC0004AD04ECE52CC06D626D25AC85EC6AA8982
:100DD0002E843289368A63D3E700BA872320F9004C
:100DE0000347340401C785072320F9001C4093F70B
:100DF000070291C78327090089072320F9000440CF
:100E0000998891E8130B9401FD5B5C44032709006A
:100E1000998F63CCF40483473404B336F0001C404C
:100E200093F70702A5EB13063404D2854E85829A08
:100E3000FD576303F5041C4011478144998B639966
:100E4000E7004444832709009D8C63D30400814458
:100E50001C4418486354F700998FBE9401496904F3
:100E60007D5B63982405014509A885465A86D2858D
:100E70004E85829A631E75017D55B250225492545C
:100E80000259F249624AD24A424BB24B45618280D2
:100E90008504A5BF3307D40013060003A301C704CC
:100EA0000347540493871600A2978906A381E70499
:100EB0009DBF85462286D2854E85829AE30E65FBCC
:100EC000050945B7797122D426D24AD04ECE06D62E
:100ED00052CC56CA5AC883C8850193078007AA8492
:100EE0002E843289B68963EE170193072006938614
:100EF000350463ED17016388081C9307800563823E
:100F0000F816930A24042301140505A89387D8F939
:100F100093F7F70F5546E366F6FE09668A07130650
:100F2000C66EB2979C4382871C43938A250493869E
:100F300047009C4314C32381F50485474DAA904183
:100F40001C43137506089385470031C19C430CC3AD
:100F500009674C401308C77563DF07121307D002F7
:100F6000A301E4040CC463DC0502B307F040294785
:100F7000B68A33F6E702FD1A42960346060023803E
:100F8000CA003E86B3D7E702E375E6FE85A09C4320
:100F9000137506040CC34DDDC207C18755BF6D9A9A
:100FA00010C0E1B790411C431375060893854700B4
:100FB00001C50CC39C4339A0137606040CC37DDA2B
:100FC00083D7070009681307F0061308C8756392F2
:100FD000E80C2147A3010404504010C4E34A06F87A
:100FE0000C40ED990CC0C9F7B68A59F2A147631EAF
:100FF000F7001C40858B91CB58401C4863C7E70025
:1010000093070003A38FFAFEFD1AB386564114C856
:101010004E87CA867000A2852685693B7D5A631C6F
:10102000450D7D55B250225492540259F249624AFC
:10103000D24A424B456182809C4193E707029CC1A2
:10104000096893088007130808771040A302140565
:101050001C43137506089385470001C90CC39C43C4
:1010600019A809681308C875CDB7137506040CC311
:101070007DD583D707001377160001C713660602D4
:1010800010C099C34147B9B718401377F7FD18C08E
:10109000D5BF294781B71308C775294735BF904188
:1010A0001C43CC49137806081385470063060800E3
:1010B00008C39C438CC301A808C3137606049C4351
:1010C00075DA2390B70023280400B68A91B71C4331
:1010D000D04181459386470014C383AA07005685F3
:1010E000EFF08FF901C53305554148C05C401CC87D
:1010F000A301040431BF14485686CA852685829907
:10110000E30145F31C40898B8DE7B2474844E35B1C
:10111000F5F03E8501BF85465686CA8526858299AB
:10112000E30165F1050A5C443247998FE345FAFE15
:10113000E9BF014A930A94017D5BF5B7411122C4CE
:1011400026C22A842E8506C623A20182EF10004CF7
:10115000FD576316F50083A7418291C31CC0B240BE
:101160002244924441018280411122C42E848395FD
:10117000E50006C6752B634905007C48AA977CC824
:10118000B2402244410182808357C4007D777D179D
:10119000F98F2316F400EDB70145828083D7C5008F
:1011A000011122CC26CA4AC84EC606CE93F70710B4
:1011B000AA842E843289B68991C78395E500894631
:1011C00001463D218357C4007D777D17F98F831534
:1011D000E4002316F4006244F240CE864A86B24907
:1011E00042492685D244056111A2411122C42E84B0
:1011F0008395E50006C6ED2E7D578357C400631B1B
:10120000E5007D777D17F98F2316F400B240224464
:10121000410182800567D98F2316F40068C8FDB7A5
:101220008395E500C5AA011122CC26CA4AC806CE7C
:101230004EC6AA842E89328409C51C4D99E3EFF06D
:101240006F9989679387C76C6318F402C0401C4C80
:101250001CC48357C400A18B99C31C4885EFA28589
:1012600026856D2805C97D59F2406244D244B249B1
:101270004A8542490561828089679387C76A6314FA
:10128000F4008044E9B789679387C768E311F4FCE9
:10129000C04475BF1C4808409379F90F1379F90FC2
:1012A0001D8D5C486346F500A2852685F12445FD29
:1012B0001C440505FD171CC41C401387170018C0EB
:1012C000238037015C486389A7008357C400858B5E
:1012D000C1DFA947E31AF9F8A2852685712C49D503
:1012E00059B72E86AA8503A5C18035BF411122C4F6
:1012F00026C22A842E85B285368606C623A201829E
:10130000EF106029FD576316F50083A7418291C352
:101310001CC0B2402244924441018280411126C245
:1013200083A4C18022C44AC006C62A892E8491C4DF
:101330009C4C81E72685EFF0EF8989679387C76C1E
:101340006314F402C0408317C40013F7870025EB31
:1013500013F7070105EB25472320E90093E707046E
:101360002316F4007D5551A889679387C76A6314D3
:10137000F4008044C9BF89679387C768E315F4FC0C
:10138000C044D1B7918B95C74C5891C99307440479
:101390006385F5004A85EFF08FD4232A0402835732
:1013A000C4002322040093F7B7FD2316F4001C4861
:1013B0001CC08357C40093E787002316F4001C4821
:1013C00081EF8357C4001307002093F70728638534
:1013D000E700A2854A854D248317C40013F7170040
:1013E0001DC35848232404003307E04018CC184894
:1013F000014501E713F7070835F3B2402244924450
:1014000002494101828013F72700814611E35448C5
:1014100014C4F1BF411122C426C22A842E8506C6F7
:1014200023A20182412EFD576316F50083A7418256
:1014300091C31CC0B24022449244410182808397F0
:10144000C500011122CC26CA06CE4AC84EC613F7E3
:101450008700AA842E8471E7D8416345E000B84133
:101460006359E008585451C7B18303A90400858B20
:1014700023A004000C50A1CF70488357C400918B67
:1014800099C75C401D8E5C5899C33C401D8E5C54CE
:101490000C50814626858297FD57630EF5041C4843
:1014A0000567232204001CC08357C400F98F91C331
:1014B00068C84C5823A024018DCD9307440463854C
:1014C000F5002685EFF0AFC1232A04021DA00146D6
:1014D000854626850297FD572A86E310F5FA9C403B
:1014E000C9DF75476385E70059476395E70623A081
:1014F00024010145BDA098408317C40001CFF546E3
:101500006305D700D9466319D7041C482322040079
:101510001CC045B71848B1832322040018C0858B2E
:1015200079B783A90501E38609FC03A905008D8B22
:1015300023A0350133093941014791E3D84918C443
:10154000E35920FB1C540C50CA864E862685829790
:101550006340A0028317C40093E707042316F40036
:101560007D55F2406244D2444249B24905618280CD
:10157000AA993309A940E9B79C49A9CF011122CC06
:1015800006CE2A8419C51C4D89E72EC6EFE09FE4DC
:10159000B24589679387C76C639BF5004C4083977E
:1015A000C50085C722856244F240056149BD89674F
:1015B0009387C76A6394F5000C44D5B7896793870E
:1015C000C768E39EF5FC4C44D9BFF2406244014534
:1015D0000561828001458280AA8501E903A5018118
:1015E0008565938585576FF08FA203A5C18069B784
:1015F000411122C426C22A842E85B285368606C6AB
:1016000023A20182D12AFD576316F50083A74182E8
:1016100091C31CC0B240224492444101828059715E
:10162000A2D42E848395E500A6D2CAD086D6B284F1
:10163000368963D305028357C40093F707088DEBFF
:1016400013070040B65026542320F90098C00659CD
:10165000965401456561828030001122E34D05FCFE
:101660003247BD67F98F7977BA9793B71700C9BF2B
:10167000814713070004F9B783D7C500797122D4D5
:1016800006D626D24AD04ECE898B2E8491CF930790
:1016900074041CC01CC885475CC8B25022549254C4
:1016A0000259F2494561828074003000AA84853F66
:1016B000A2492A892685CE85EFF08FAC01ED8317EC
:1016C000C40013F7072071FBF19B93E72700231653
:1016D000F40075BF9307E0379CD48357C40008C05B
:1016E00008C893E707082316F400B247232A3401F9
:1016F00089CF8315E4002685492801C98357C40092
:10170000F19B93E717002316F4008357C40033E5D9
:1017100027012316A40051B78280828083A7C5FFCA
:101720001385C7FF63D50700AA959C413E9582802B
:10173000411122C426C22A842E85B285368606C669
:1017400023A201824520FD576316F50083A741823D
:1017500091C31CC0B2402244924441018280411195
:1017600022C426C22A842E85B28506C623A20182FF
:101770008128FD576316F50083A7418291C31CC0E1
:10178000B2402244924441018280411122C426C2C7
:101790002A842E8506C623A201820D28FD576316D2
:1017A000F50083A7418291C31CC0B24022449244F9
:1017B000410182801307800523A2E1827D5582804A
:1017C0001307800523A2E1827D55828013078005DF
:1017D00023A2E182014582801307800523A2E182D2
:1017E0007D5582801307800523A2E1827D5582808A
:1017F000011106CE22CC0010232204FE232404FE75
:10180000232604FE85451145EF00703F85472312CE
:10181000F4FEC1472326F4FE8D472324F4FE9307EC
:1018200044FEBE85B717014013850780612E010075
:10183000F240624405618280011106CE22CC001084
:10184000A30704FE0945EF00F03FEF005041F167A8
:1018500013850720EF00F04BB707002083A7070789
:10186000BE85896713858766EFE01F9D89671385AD
:101870008767EFE0FFA8AD3F1305A00FEF005042D0
:101880008347F4FE91E78547A307F4FE854721A02F
:10189000A30704FE81473E868545B717014013859F
:1018A0000780B123D1BF411106C622C40008B71773
:1018B00002409843B71702401367170098C3B71741
:1018C0000240D443B71702403707FFF8758FD8C3DB
:1018D000B71702409443B71702403707F7FE7D174A
:1018E000758F98C3B71702409443B7170240370764
:1018F000FCFF7D17758F98C3B7170240D443B71705
:101900000240370781FF7D17758FD8C3B717024094
:101910009443B7170240370700EC7D17758F98C3C3
:10192000B71702403707FF0098C7B717024023A632
:10193000070231200100B24022444101828041115E
:1019400006C622C4000831200100B24022444101F1
:101950008280011122CE0010232604FE232404FEDF
:10196000B71702409443B71702404167558F98C399
:10197000B71702409843B7070200F98F2324F4FEFB
:101980008327C4FE85072326F4FE832784FE91E780
:101990000327C4FE8567E31DF7FCB7170240984391
:1019A000B7070200F98F89C785472324F4FE19A0E1
:1019B000232404FE032784FE85476312F70A3717A2
:1019C0000240B71702405843D8C337170240B71731
:1019D00002405843D8C3B7170240D843B717024054
:1019E00013670740D8C3B7170240D443B717024064
:1019F0003707C1FF7D17758FD8C3B7170240D4438F
:101A0000B717024037071D00558FD8C3B7170240DC
:101A10009443B717024037070001558F98C3010060
:101A2000B71702409843B7070002F98FF5DBB717E5
:101A30000240D843B7170240719BD8C3B717024082
:101A4000D843B717024013672700D8C30100B71760
:101A50000240DC4313F7C700A147E31AF7FE010079
:101A600072440561828001A001A001A001A001A033
:101A700001A001A001A001A001A001A001A001A05E
:101A800001A001A001A001A001A001A001A001A04E
:101A900001A001A001A001A001A001A001A001A03E
:101AA00001A001A001A001A001A001A001A001A02E
:101AB00001A001A001A001A001A001A001A001A01E
:101AC00001A001A001A001A001A001A001A001A00E
:101AD00001A001A001A001A001A001A001A001A0FE
:101AE00001A001A001A001A001A001A001A001A0EE
:101AF00001A001A001A001A001A001A001A001A0DE
:101B000001A001A001A001A001A001A001A001A0CD
:101B100001A001A001A001A001A001A001A001A0BD
:101B200001A001A097F1FF1F9381C1D4176100208C
:101B30001301414D17150000130505C597E5FF1F5B
:101B40009385454C1386418163FAC50083220500C5
:101B500023A0550011059105E3EAC5FE13854181D7
:101B6000938581826377B500232005001105E36D1D
:101B7000B5FEFD42739002BCFD42739042809962B3
:101B80009382820873A0023097E2FFFF9382024B98
:101B900093E232007390523037F5FF1F9305003007
:101BA0002318B51A372902400325C90005897DF994
:101BB000EFF07FCF97020000938242C873901234F7
:101BC00073002030397122DE80002326A4FC2324F8
:101BD000B4FC232604FE232004FE232404FE232E2B
:101BE00004FC232204FE232C04FC832784FC9C4752
:101BF000BD8B2326F4FE832784FC9C47C18B89CBB5
:101C0000832784FCDC430327C4FED98F2326F4FEFC
:101C1000832784FC83D7070093F7F70FF1CF83273F
:101C2000C4FC9C432322F4FE232404FE65A88327DE
:101C300084FE0547B317F700232EF4FC832784FCAA
:101C400083D707003E878327C4FDF98F2320F4FE46
:101C5000032704FE8327C4FD6311F708832784FE4E
:101C60008A07232EF4FC8327C4FD3D47B317F700F2
:101C7000232CF4FC832784FD93C7F7FF032744FE3E
:101C8000F98F2322F4FE8327C4FD0327C4FEB31774
:101C9000F700032744FED98F2322F4FE832784FC18
:101CA000984793078002631BF700832784FE05474C
:101CB0003317F7008327C4FCD8CB05A0832784FC07
:101CC000984793078004631AF700832784FE05472B
:101CD0003317F7008327C4FC98CB832784FE85073E
:101CE0002324F4FE032784FE9D47E3F2E7F48327D1
:101CF000C4FC032744FE98C3832784FC03D7070052
:101D00009307F00F63F1E70E8327C4FCDC43232223
:101D1000F4FE232404FE75A8832784FEA10705474B
:101D2000B317F700232EF4FC832784FC83D7070026
:101D30003E878327C4FDF98F2320F4FE032704FE8A
:101D40008327C4FD6312F708832784FE8A07232EA6
:101D5000F4FC8327C4FD3D47B317F700232CF4FCA4
:101D6000832784FD93C7F7FF032744FEF98F2322BF
:101D7000F4FE8327C4FD0327C4FEB317F70003272F
:101D800044FED98F2322F4FE832784FC98479307CF
:101D90008002631BF700832784FEA10705473317E2
:101DA000F7008327C4FCD8CB832784FC984793078C
:101DB0008004631BF700832784FEA10705473317C0
:101DC000F7008327C4FC98CB832784FE8507232450
:101DD000F4FE032784FE9D47E3F0E7F48327C4FC69
:101DE000032744FED8C3010072542161828001118F
:101DF00022CE00102326A4FEAE872322C4FE231584
:101E0000F4FE832744FE99C70357A4FE8327C4FE2C
:101E100098CB31A00357A4FE8327C4FED8CB010082
:101E20007244056182805D7186C6A2C48008232E3B
:101E3000A4FA232CB4FA232604FE232404FE23222E
:101E400004FE232004FE232E04FC8327C4FB232E40
:101E5000F4FC8327C4FB83D70701C207C183232671
:101E6000F4FE0327C4FEB567FD17F98F2326F4FEA1
:101E7000832784FB83D767003E878327C4FED98FDF
:101E80002326F4FE8327C4FE13970701418383278B
:101E9000C4FB2398E7008327C4FB83D7C700C2078E
:101EA000C1832326F4FE0327C4FEBD679387379FB3
:101EB000F98F2326F4FE832784FB03D7470083276B
:101EC00084FB83D78700D98F13970701418383272A
:101ED00084FB83D7A700D98FC207C1833E8783279E
:101EE000C4FED98F2326F4FE8327C4FE139707016F
:101EF00041838327C4FB2396E7008327C4FB83D752
:101F00004701C207C1832326F4FE0327C4FEC1672D
:101F10009387F7CFF98F2326F4FE832784FB83D79B
:101F2000C7003E878327C4FED98F2326F4FE83276C
:101F3000C4FE1397070141838327C4FB239AE7005C
:101F4000930784FC3E85D5220327C4FDB747014093
:101F5000938707806317F700832744FD2324F4FE4B
:101F600029A0832704FD2324F4FE8327C4FB83D701
:101F7000C700C207C183C207C18763D20702032714
:101F800084FEBA878607BA978E073E97832784FB1D
:101F90009C438607B357F7022322F4FE05A00327CC
:101FA00084FEBA878607BA978E073E97832784FBFD
:101FB0009C438A07B357F7022322F4FE032744FE0B
:101FC00093074006B357F70292072326F4FE8327B0
:101FD000C4FE13D7470093074006B307F702032751
:101FE00044FEB307F7402320F4FE8327C4FB83D7C6
:101FF000C700C207C183C207C18763D20702832714
:1020000004FE8E071387270393074006B357F70292
:102010009D8B0327C4FED98F2326F4FE05A08327BA
:1020200004FE92071387270393074006B357F7026E
:10203000BD8B0327C4FED98F2326F4FE8327C4FE5D
:102040001397070141838327C4FB2394E700010012
:10205000B640264461618280011122CE0010232601
:10206000A4FE2324B4FE832784FE95C38327C4FEE5
:1020700083D7C7001397070141838967D98F1397C7
:10208000070141838327C4FE2396E70015A0832719
:10209000C4FE83D7C700139707014183F977FD1763
:1020A000F98F1397070141838327C4FE2396E70026
:1020B0000100724405618280011122CE00102326A6
:1020C000A4FEAE872315F4FE8357A4FE93F7F71FF3
:1020D0001397070141838327C4FE2392E700010081
:1020E000724405618280797122D60018232EA4FCE7
:1020F000AE87231DF4FC232604FE8327C4FD83D76B
:102100000700C207C1830357A4FDF98FC207C1832B
:1021100089C785472326F4FE19A0232604FE8327BA
:10212000C4FE3E85325445618280397122DE8000D2
:102130002326A4FC232204FE232604FE232004FEDF
:10214000232E04FC232404FEB7170240DC43B18B8A
:102150002322F4FE032744FEA1476300F70403276C
:1021600044FEA14763E2E716832744FE99C703278D
:1021700044FE9147630BF70081AA8327C4FC3717FD
:102180007A001307072098C389AA8327C4FC37174E
:102190007A001307072098C389A2B7170240D843D3
:1021A000B7073C00F98F2326F4FEB7170240D84347
:1021B000C167F98F2320F4FE8327C4FEC9838907F2
:1021C0002326F4FEB7F7FF1F9387C77098439167E4
:1021D000F98F91EB0327C4FEC5476319F704C9477C
:1021E0002326F4FEA1A00327C4FE89476315F70048
:1021F000C9472326F4FE0327C4FEBD476318F70032
:10220000B5472326F4FE85472324F4FE0327C4FEA6
:10221000C1476315F700BD472326F4FE0327C4FE1C
:10222000C5476315F700C1472326F4FE832704FE44
:10223000A1E3B7470240938707809C43C18B89CFB6
:102240000327C4FEB7177A00938707203307F702E6
:102250008327C4FC98C399A80327C4FEB7173D0081
:10226000938707903307F7028327C4FC98C33DA8E0
:10227000B7170240D843B7070200F98F89CF032769
:10228000C4FEB7173D00938707903307F7028327F3
:10229000C4FC98C321A80327C4FEB7177A0093870C
:1022A00007203307F7028327C4FC98C3032784FE63
:1022B00085476313F7028327C4FC9C4313D7170099
:1022C0008327C4FC98C309A88327C4FC37177A0066
:1022D0001307072098C311A00100B7170240DC4381
:1022E00093F7070F2322F4FE832744FE91832322D2
:1022F000F4FEB707002013870700832744FEBA9730
:1023000083C7070093F7F70F232EF4FC8327C4FC41
:1023100098438327C4FD3357F7008327C4FCD8C3F1
:10232000B7170240DC4393F707702322F4FE83279C
:1023300044FEA1832322F4FEB70700201387070081
:10234000832744FEBA9783C7070093F7F70F232E1E
:10235000F4FC8327C4FCD8438327C4FD3357F7001C
:102360008327C4FC98C7B7170240D8439167938767
:102370000780F98F2322F4FE832744FEAD832322B6
:10238000F4FEB707002013870700832744FEBA979F
:1023900083C7070093F7F70F232EF4FC8327C4FCB1
:1023A000D8438327C4FD3357F7008327C4FCD8C71D
:1023B000B7170240D843B167F98F2322F4FE832771
:1023C00044FEB9832322F4FEB70700201387470792
:1023D000832744FEBA9783C7070093F7F70F232E8E
:1023E000F4FC8327C4FCD8478327C4FD3357F70286
:1023F0008327C4FC98CB01007254216182800111B3
:1024000022CE00102326A4FE2324B4FE832784FEBC
:1024100099CBB7170240944FB71702400327C4FE69
:10242000558F98CF21A8B7170240944F8327C4FE39
:1024300013C7F7FFB7170240758F98CF010072449A
:1024400005618280011122CE00102326A4FE0327FD
:10245000C4FE23AAE180010072440561828041111B
:1024600022C60008B707002003A70707B7177A009E
:1024700093870720B357F70213F7F70F238CE180F8
:1024800083C781813E879307803EB307F702139786
:1024900007014183239DE180010032444101828094
:1024A000797122D60018232EA4FCB7F600E0D042A2
:1024B000B7F600E0799AD0C283D6A181368683260A
:1024C000C4FDB386C6022326D4FEB7F600E0032679
:1024D000C4FE3287814798CADCCAB7F700E0984348
:1024E000B7F700E01367170398C30100B7F700E0E0
:1024F000DC4313F717008547E31AF7FEB7F700E050
:102500009843B7F700E0799B98C3010032544561C6
:102510008280397106DE22DC80002326A4FC8545FA
:10252000916713854700E13D930700202312F4FED5
:102530008D472324F4FEE1472326F4FE930744FE4F
:10254000BE85B717014013850780EFF0AFE78327FB
:10255000C4FC232AF4FC231C04FC231D04FC231EBE
:1025600004FC231004FEA147231FF4FC930744FD41
:10257000BE85B747014013850780EFF0DF8A8545A8
:10258000B747014013850780EFF01FAD0100F250FF
:10259000625421618280797106D622D40018232EDC
:1025A000A4FC232CB4FC232AC4FC232604FE91A003
:1025B000010093050004B747014013850780EFF041
:1025C0009FB2AA87FDD7832784FD13871700232C8A
:1025D000E4FC83870700C207C183BE85B74701407B
:1025E00013850780EFF05FAD8327C4FE85072326A0
:1025F000F4FE0327C4FE832744FDE34BF7FA832749
:1026000044FD3E85B250225445618280011122CEA4
:1026100000102326A4FE03A781808327C4FE3E97D3
:1026200093878182636DF70003A781808327C4FEAF
:102630003E97B78700209387078063F4E700FD5734
:1026400039A803A781808327C4FE3E9723A4E18095
:1026500003A781808327C4FEB307F040BA973E8565
:10266000724405618280000053797374656D436C18
:102670006B3A25640D0A00004750494F20546F679C
:10268000676C6520544553540D00000000000000A5
:10269000000000000000000000000000000000003A
:1026A000000000000000000000000000000000002A
:1026B000000000000000000000000000000000001A
:1026C000000000000000000000000000000000000A
:1026D00000000000000000000000000000000000FA
:1026E000000000000000000000000000280F0000B3
:1026F0003E0F0000020F0000020F0000020F00005A
:10270000020F00003E0F0000020F0000020F000049
:10271000020F0000020F00009E100000A40F000036
:1027200038100000020F0000020F0000CE10000061
:10273000020F0000A40F0000020F0000020F0000B3
:10274000401000000A000000232D302B2000000064
:10275000686C4C006566674546470000303132338F
:10276000343536373839414243444546000000008D
:1027700030313233343536373839616263646566F7
:042780000000000055
:102784000000000001020304010203040607080913
:1027940000000000CC260000AC2600008C260000BF
:1027A4000000000000000000000000000000000025
:1027B4000000000000000000000000000000000015
:1027C4000000000000000000000000000000000005
:1027D40000000000000000000000000000000000F5
:1027E40000000000000000000000000000000000E5
:1027F40000A24A04020406089800002010000020E9
:0428040010000020A0
:00000001FF
